{
  "contractName": "ItemManager",
  "abi": [
    {
      "anonymous": false,
      "inputs": [
        {
          "indexed": false,
          "internalType": "uint256",
          "name": "index",
          "type": "uint256"
        },
        {
          "indexed": false,
          "internalType": "enum ItemManager.SupplyChainSteps",
          "name": "step",
          "type": "uint8"
        },
        {
          "indexed": false,
          "internalType": "address",
          "name": "itemAddress",
          "type": "address"
        }
      ],
      "name": "SupplyChainEvent",
      "type": "event"
    },
    {
      "inputs": [],
      "name": "isOwner",
      "outputs": [
        {
          "internalType": "bool",
          "name": "",
          "type": "bool"
        }
      ],
      "stateMutability": "view",
      "type": "function",
      "constant": true
    },
    {
      "inputs": [
        {
          "internalType": "uint256",
          "name": "",
          "type": "uint256"
        }
      ],
      "name": "items",
      "outputs": [
        {
          "internalType": "contract Item",
          "name": "item",
          "type": "address"
        },
        {
          "internalType": "string",
          "name": "identifier",
          "type": "string"
        },
        {
          "internalType": "enum ItemManager.SupplyChainSteps",
          "name": "step",
          "type": "uint8"
        }
      ],
      "stateMutability": "view",
      "type": "function",
      "constant": true
    },
    {
      "inputs": [],
      "name": "owner",
      "outputs": [
        {
          "internalType": "address",
          "name": "",
          "type": "address"
        }
      ],
      "stateMutability": "view",
      "type": "function",
      "constant": true
    },
    {
      "inputs": [
        {
          "internalType": "string",
          "name": "_identifier",
          "type": "string"
        },
        {
          "internalType": "uint256",
          "name": "_price",
          "type": "uint256"
        }
      ],
      "name": "createItem",
      "outputs": [],
      "stateMutability": "nonpayable",
      "type": "function"
    },
    {
      "inputs": [
        {
          "internalType": "uint256",
          "name": "_index",
          "type": "uint256"
        }
      ],
      "name": "triggerPayment",
      "outputs": [],
      "stateMutability": "payable",
      "type": "function",
      "payable": true
    },
    {
      "inputs": [
        {
          "internalType": "uint256",
          "name": "_index",
          "type": "uint256"
        }
      ],
      "name": "triggerDelivery",
      "outputs": [],
      "stateMutability": "nonpayable",
      "type": "function"
    }
  ],
  "bytecode": "0x608060405234801561001057600080fd5b50336000806101000a81548173ffffffffffffffffffffffffffffffffffffffff021916908373ffffffffffffffffffffffffffffffffffffffff160217905550611b55806100606000396000f3fe6080604052600436106200005c5760003560e01c8063800fb83f14620000615780638c55174214620000815780638da5cb5b14620000af5780638f32d59b14620000df578063bfb231d2146200010f578063cd31831e1462000155575b600080fd5b6200007f600480360381019062000079919062000ae2565b62000183565b005b3480156200008e57600080fd5b50620000ad6004803603810190620000a7919062000c76565b62000453565b005b348015620000bc57600080fd5b50620000c762000674565b604051620000d6919062000d21565b60405180910390f35b348015620000ec57600080fd5b50620000f762000698565b60405162000106919062000d5b565b60405180910390f35b3480156200011c57600080fd5b506200013b600480360381019062000135919062000ae2565b620006ef565b6040516200014c9392919062000ef6565b60405180910390f35b3480156200016257600080fd5b506200018160048036038101906200017b919062000ae2565b620007d6565b005b60006001600083815260200190815260200160002060000160009054906101000a900473ffffffffffffffffffffffffffffffffffffffff1690503373ffffffffffffffffffffffffffffffffffffffff168173ffffffffffffffffffffffffffffffffffffffff16146200022f576040517f08c379a0000000000000000000000000000000000000000000000000000000008152600401620002269062000fb0565b60405180910390fd5b348173ffffffffffffffffffffffffffffffffffffffff1663a035b1fe6040518163ffffffff1660e01b8152600401602060405180830381865afa1580156200027c573d6000803e3d6000fd5b505050506040513d601f19601f82011682018060405250810190620002a2919062000fe9565b14620002e5576040517f08c379a0000000000000000000000000000000000000000000000000000000008152600401620002dc906200106b565b60405180910390fd5b60006002811115620002fc57620002fb62000e76565b5b6001600084815260200190815260200160002060020160009054906101000a900460ff16600281111562000335576200033462000e76565b5b1462000378576040517f08c379a00000000000000000000000000000000000000000000000000000000081526004016200036f90620010dd565b60405180910390fd5b600180600084815260200190815260200160002060020160006101000a81548160ff02191690836002811115620003b457620003b362000e76565b5b02179055507ffba961e9881dacd80e45462323cbbcc97beb807d7303ea711bc5c2c17e56fdea826001600085815260200190815260200160002060020160009054906101000a900460ff166001600086815260200190815260200160002060000160009054906101000a900473ffffffffffffffffffffffffffffffffffffffff16604051620004479392919062001110565b60405180910390a15050565b60008054906101000a900473ffffffffffffffffffffffffffffffffffffffff1673ffffffffffffffffffffffffffffffffffffffff163373ffffffffffffffffffffffffffffffffffffffff1614620004e4576040517f08c379a0000000000000000000000000000000000000000000000000000000008152600401620004db90620011c3565b60405180910390fd5b60003060025483604051620004f990620009d5565b62000507939291906200121e565b604051809103906000f08015801562000524573d6000803e3d6000fd5b5090508060016000600254815260200190815260200160002060000160006101000a81548173ffffffffffffffffffffffffffffffffffffffff021916908373ffffffffffffffffffffffffffffffffffffffff160217905550826001600060025481526020019081526020016000206001019080519060200190620005ac929190620009e3565b50600060016000600254815260200190815260200160002060020160006101000a81548160ff02191690836002811115620005ec57620005eb62000e76565b5b02179055507ffba961e9881dacd80e45462323cbbcc97beb807d7303ea711bc5c2c17e56fdea60025460016000600254815260200190815260200160002060020160009054906101000a900460ff16836040516200064d9392919062001110565b60405180910390a1600260008154809291906200066a906200128a565b9190505550505050565b60008054906101000a900473ffffffffffffffffffffffffffffffffffffffff1681565b60008060009054906101000a900473ffffffffffffffffffffffffffffffffffffffff1673ffffffffffffffffffffffffffffffffffffffff163373ffffffffffffffffffffffffffffffffffffffff1614905090565b60016020528060005260406000206000915090508060000160009054906101000a900473ffffffffffffffffffffffffffffffffffffffff16908060010180546200073a9062001306565b80601f0160208091040260200160405190810160405280929190818152602001828054620007689062001306565b8015620007b95780601f106200078d57610100808354040283529160200191620007b9565b820191906000526020600020905b8154815290600101906020018083116200079b57829003601f168201915b5050505050908060020160009054906101000a900460ff16905083565b60008054906101000a900473ffffffffffffffffffffffffffffffffffffffff1673ffffffffffffffffffffffffffffffffffffffff163373ffffffffffffffffffffffffffffffffffffffff161462000867576040517f08c379a00000000000000000000000000000000000000000000000000000000081526004016200085e90620011c3565b60405180910390fd5b600160028111156200087e576200087d62000e76565b5b6001600083815260200190815260200160002060020160009054906101000a900460ff166002811115620008b757620008b662000e76565b5b14620008fa576040517f08c379a0000000000000000000000000000000000000000000000000000000008152600401620008f1906200138b565b60405180910390fd5b60026001600083815260200190815260200160002060020160006101000a81548160ff0219169083600281111562000937576200093662000e76565b5b02179055507ffba961e9881dacd80e45462323cbbcc97beb807d7303ea711bc5c2c17e56fdea816001600084815260200190815260200160002060020160009054906101000a900460ff166001600085815260200190815260200160002060000160009054906101000a900473ffffffffffffffffffffffffffffffffffffffff16604051620009ca9392919062001110565b60405180910390a150565b61077280620013ae83390190565b828054620009f19062001306565b90600052602060002090601f01602090048101928262000a15576000855562000a61565b82601f1062000a3057805160ff191683800117855562000a61565b8280016001018555821562000a61579182015b8281111562000a6057825182559160200191906001019062000a43565b5b50905062000a70919062000a74565b5090565b5b8082111562000a8f57600081600090555060010162000a75565b5090565b6000604051905090565b600080fd5b600080fd5b6000819050919050565b62000abc8162000aa7565b811462000ac857600080fd5b50565b60008135905062000adc8162000ab1565b92915050565b60006020828403121562000afb5762000afa62000a9d565b5b600062000b0b8482850162000acb565b91505092915050565b600080fd5b600080fd5b6000601f19601f8301169050919050565b7f4e487b7100000000000000000000000000000000000000000000000000000000600052604160045260246000fd5b62000b698262000b1e565b810181811067ffffffffffffffff8211171562000b8b5762000b8a62000b2f565b5b80604052505050565b600062000ba062000a93565b905062000bae828262000b5e565b919050565b600067ffffffffffffffff82111562000bd15762000bd062000b2f565b5b62000bdc8262000b1e565b9050602081019050919050565b82818337600083830152505050565b600062000c0f62000c098462000bb3565b62000b94565b90508281526020810184848401111562000c2e5762000c2d62000b19565b5b62000c3b84828562000be9565b509392505050565b600082601f83011262000c5b5762000c5a62000b14565b5b813562000c6d84826020860162000bf8565b91505092915050565b6000806040838503121562000c905762000c8f62000a9d565b5b600083013567ffffffffffffffff81111562000cb15762000cb062000aa2565b5b62000cbf8582860162000c43565b925050602062000cd28582860162000acb565b9150509250929050565b600073ffffffffffffffffffffffffffffffffffffffff82169050919050565b600062000d098262000cdc565b9050919050565b62000d1b8162000cfc565b82525050565b600060208201905062000d38600083018462000d10565b92915050565b60008115159050919050565b62000d558162000d3e565b82525050565b600060208201905062000d72600083018462000d4a565b92915050565b6000819050919050565b600062000da362000d9d62000d978462000cdc565b62000d78565b62000cdc565b9050919050565b600062000db78262000d82565b9050919050565b600062000dcb8262000daa565b9050919050565b62000ddd8162000dbe565b82525050565b600081519050919050565b600082825260208201905092915050565b60005b8381101562000e1f57808201518184015260208101905062000e02565b8381111562000e2f576000848401525b50505050565b600062000e428262000de3565b62000e4e818562000dee565b935062000e6081856020860162000dff565b62000e6b8162000b1e565b840191505092915050565b7f4e487b7100000000000000000000000000000000000000000000000000000000600052602160045260246000fd5b6003811062000eb95762000eb862000e76565b5b50565b600081905062000ecc8262000ea5565b919050565b600062000ede8262000ebc565b9050919050565b62000ef08162000ed1565b82525050565b600060608201905062000f0d600083018662000dd2565b818103602083015262000f21818562000e35565b905062000f32604083018462000ee5565b949350505050565b7f4f6e6c79204974656d20697320616c6c6f77656420746f20757064617465206960008201527f7473656c66000000000000000000000000000000000000000000000000000000602082015250565b600062000f9860258362000dee565b915062000fa58262000f3a565b604082019050919050565b6000602082019050818103600083015262000fcb8162000f89565b9050919050565b60008151905062000fe38162000ab1565b92915050565b60006020828403121562001002576200100162000a9d565b5b6000620010128482850162000fd2565b91505092915050565b7f46756c6c207061796d656e7473206f6e6c790000000000000000000000000000600082015250565b60006200105360128362000dee565b915062001060826200101b565b602082019050919050565b60006020820190508181036000830152620010868162001044565b9050919050565b7f4974656d206675727468657220696e20737570706c7920636861696e00000000600082015250565b6000620010c5601c8362000dee565b9150620010d2826200108d565b602082019050919050565b60006020820190508181036000830152620010f881620010b6565b9050919050565b6200110a8162000aa7565b82525050565b6000606082019050620011276000830186620010ff565b62001136602083018562000ee5565b62001145604083018462000d10565b949350505050565b7f4f6e6c79206f776e657220697320616c6c6f77656420746f20646f207468697360008201527f206f7065726174696f6e00000000000000000000000000000000000000000000602082015250565b6000620011ab602a8362000dee565b9150620011b8826200114d565b604082019050919050565b60006020820190508181036000830152620011de816200119c565b9050919050565b6000620011f28262000d82565b9050919050565b60006200120682620011e5565b9050919050565b6200121881620011f9565b82525050565b60006060820190506200123560008301866200120d565b620012446020830185620010ff565b620012536040830184620010ff565b949350505050565b7f4e487b7100000000000000000000000000000000000000000000000000000000600052601160045260246000fd5b6000620012978262000aa7565b91507fffffffffffffffffffffffffffffffffffffffffffffffffffffffffffffffff8203620012cc57620012cb6200125b565b5b600182019050919050565b7f4e487b7100000000000000000000000000000000000000000000000000000000600052602260045260246000fd5b600060028204905060018216806200131f57607f821691505b602082108103620013355762001334620012d7565b5b50919050565b7f4974656d206973206675727468657220696e20537570706c7920436861696e00600082015250565b600062001373601f8362000dee565b915062001380826200133b565b602082019050919050565b60006020820190508181036000830152620013a68162001364565b905091905056fe608060405234801561001057600080fd5b5060405161077238038061077283398181016040528101906100329190610134565b82600360006101000a81548173ffffffffffffffffffffffffffffffffffffffff021916908373ffffffffffffffffffffffffffffffffffffffff1602179055508160028190555080600081905550505050610187565b600080fd5b600073ffffffffffffffffffffffffffffffffffffffff82169050919050565b60006100b98261008e565b9050919050565b60006100cb826100ae565b9050919050565b6100db816100c0565b81146100e657600080fd5b50565b6000815190506100f8816100d2565b92915050565b6000819050919050565b610111816100fe565b811461011c57600080fd5b50565b60008151905061012e81610108565b92915050565b60008060006060848603121561014d5761014c610089565b5b600061015b868287016100e9565b935050602061016c8682870161011f565b925050604061017d8682870161011f565b9150509250925092565b6105dc806101966000396000f3fe6080604052600436106100385760003560e01c8063295b4e171461024e5780632986c0e514610279578063a035b1fe146102a457610240565b36610240576000543414610081576040517f08c379a00000000000000000000000000000000000000000000000000000000081526004016100789061033e565b60405180910390fd5b6000600154146100c6576040517f08c379a00000000000000000000000000000000000000000000000000000000081526004016100bd906103aa565b60405180910390fd5b34600160008282546100d89190610403565b925050819055506000600360009054906101000a900473ffffffffffffffffffffffffffffffffffffffff1673ffffffffffffffffffffffffffffffffffffffff163460025460405160240161012e9190610468565b6040516020818303038152906040527f800fb83f000000000000000000000000000000000000000000000000000000007bffffffffffffffffffffffffffffffffffffffffffffffffffffffff19166020820180517bffffffffffffffffffffffffffffffffffffffffffffffffffffffff83818316178352505050506040516101b891906104fd565b60006040518083038185875af1925050503d80600081146101f5576040519150601f19603f3d011682016040523d82523d6000602084013e6101fa565b606091505b505090508061023e576040517f08c379a000000000000000000000000000000000000000000000000000000000815260040161023590610586565b60405180910390fd5b005b34801561024c57600080fd5b005b34801561025a57600080fd5b506102636102cf565b6040516102709190610468565b60405180910390f35b34801561028557600080fd5b5061028e6102d5565b60405161029b9190610468565b60405180910390f35b3480156102b057600080fd5b506102b96102db565b6040516102c69190610468565b60405180910390f35b60015481565b60025481565b60005481565b600082825260208201905092915050565b7f46756c6c205061796d656e74204f6e6c79000000000000000000000000000000600082015250565b60006103286011836102e1565b9150610333826102f2565b602082019050919050565b600060208201905081810360008301526103578161031b565b9050919050565b7f416c726561647920506169640000000000000000000000000000000000000000600082015250565b6000610394600c836102e1565b915061039f8261035e565b602082019050919050565b600060208201905081810360008301526103c381610387565b9050919050565b6000819050919050565b7f4e487b7100000000000000000000000000000000000000000000000000000000600052601160045260246000fd5b600061040e826103ca565b9150610419836103ca565b9250827fffffffffffffffffffffffffffffffffffffffffffffffffffffffffffffffff0382111561044e5761044d6103d4565b5b828201905092915050565b610462816103ca565b82525050565b600060208201905061047d6000830184610459565b92915050565b600081519050919050565b600081905092915050565b60005b838110156104b757808201518184015260208101905061049c565b838111156104c6576000848401525b50505050565b60006104d782610483565b6104e1818561048e565b93506104f1818560208601610499565b80840191505092915050565b600061050982846104cc565b915081905092915050565b7f4572726f7220696e207061796d656e742c20726576657274696e67207472616e60008201527f73616374696f6e00000000000000000000000000000000000000000000000000602082015250565b60006105706027836102e1565b915061057b82610514565b604082019050919050565b6000602082019050818103600083015261059f81610563565b905091905056fea2646970667358221220127d4ffbea5e20392733b59fe948761883e7a6a1885ad01fd341fefd11ddc9b864736f6c634300080e0033a2646970667358221220c919100ff25e153fb101997fc3ee02ddc272b9086e761116a5e9fd505b9ab43164736f6c634300080e0033",
  "immutableReferences": {},
  "source": "// SPDX-License-Identifier: MIT\n\npragma solidity ^0.8.7;\n\nimport \"./Item.sol\";\nimport \"./Ownable.sol\";\n\ncontract ItemManager is Ownable {\n    enum SupplyChainSteps {\n        Created,\n        Paid,\n        Delivered\n    }\n\n    struct S_Item {\n        Item item;\n        string identifier;\n        SupplyChainSteps step;\n    }\n\n    mapping(uint256 => S_Item) public items;\n    uint256 index;\n\n    event SupplyChainEvent(\n        uint256 index,\n        SupplyChainSteps step,\n        address itemAddress\n    );\n\n    function createItem(string memory _identifier, uint256 _price)\n        public\n        onlyOwner\n    {\n        Item item = new Item(this, index, _price);\n        items[index].item = item;\n        items[index].identifier = _identifier;\n        items[index].step = SupplyChainSteps.Created;\n\n        emit SupplyChainEvent(index, items[index].step, address(item));\n\n        index++;\n    }\n\n    // Acess instance variables of external contracts as function\n    // Not as variable\n    // Because solidity automatically creates getter funciton for public variables\n    function triggerPayment(uint256 _index) public payable {\n        Item item = items[_index].item;\n\n        require(\n            address(item) == msg.sender,\n            \"Only Item is allowed to update itself\"\n        );\n        require(item.price() == msg.value, \"Full payments only\");\n        require(\n            items[_index].step == SupplyChainSteps.Created,\n            \"Item further in supply chain\"\n        );\n\n        items[_index].step = SupplyChainSteps.Paid;\n\n        emit SupplyChainEvent(\n            _index,\n            items[_index].step,\n            address(items[_index].item)\n        );\n    }\n\n    function triggerDelivery(uint256 _index) public onlyOwner {\n        require(\n            items[_index].step == SupplyChainSteps.Paid,\n            \"Item is further in Supply Chain\"\n        );\n        items[_index].step = SupplyChainSteps.Delivered;\n\n        emit SupplyChainEvent(\n            _index,\n            items[_index].step,\n            address(items[_index].item)\n        );\n    }\n}\n",
  "sourcePath": "/Users/prathamesh/Desktop/Web3-Learn/Projects/SupplyChainProjectReact/contracts/ItemManager.sol",
  "compiler": {
    "name": "solc",
    "version": "0.8.14+commit.80d49f37.Emscripten.clang"
  },
  "schemaVersion": "3.4.7",
  "updatedAt": "2022-06-02T14:46:42.900Z",
  "networkType": "ethereum",
  "devdoc": {
    "kind": "dev",
    "methods": {},
    "version": 1
  },
  "userdoc": {
    "kind": "user",
    "methods": {},
    "version": 1
  }
}