{
  "contractName": "Item",
  "abi": [
    {
      "inputs": [
        {
          "internalType": "contract ItemManager",
          "name": "_parentContract",
          "type": "address"
        },
        {
          "internalType": "uint256",
          "name": "_index",
          "type": "uint256"
        },
        {
          "internalType": "uint256",
          "name": "_price",
          "type": "uint256"
        }
      ],
      "stateMutability": "nonpayable",
      "type": "constructor"
    },
    {
      "stateMutability": "nonpayable",
      "type": "fallback"
    },
    {
      "inputs": [],
      "name": "index",
      "outputs": [
        {
          "internalType": "uint256",
          "name": "",
          "type": "uint256"
        }
      ],
      "stateMutability": "view",
      "type": "function"
    },
    {
      "inputs": [],
      "name": "paid",
      "outputs": [
        {
          "internalType": "uint256",
          "name": "",
          "type": "uint256"
        }
      ],
      "stateMutability": "view",
      "type": "function"
    },
    {
      "inputs": [],
      "name": "price",
      "outputs": [
        {
          "internalType": "uint256",
          "name": "",
          "type": "uint256"
        }
      ],
      "stateMutability": "view",
      "type": "function"
    },
    {
      "stateMutability": "payable",
      "type": "receive"
    }
  ],
  "bytecode": "0x608060405234801561001057600080fd5b5060405161077238038061077283398181016040528101906100329190610134565b82600360006101000a81548173ffffffffffffffffffffffffffffffffffffffff021916908373ffffffffffffffffffffffffffffffffffffffff1602179055508160028190555080600081905550505050610187565b600080fd5b600073ffffffffffffffffffffffffffffffffffffffff82169050919050565b60006100b98261008e565b9050919050565b60006100cb826100ae565b9050919050565b6100db816100c0565b81146100e657600080fd5b50565b6000815190506100f8816100d2565b92915050565b6000819050919050565b610111816100fe565b811461011c57600080fd5b50565b60008151905061012e81610108565b92915050565b60008060006060848603121561014d5761014c610089565b5b600061015b868287016100e9565b935050602061016c8682870161011f565b925050604061017d8682870161011f565b9150509250925092565b6105dc806101966000396000f3fe6080604052600436106100385760003560e01c8063295b4e171461024e5780632986c0e514610279578063a035b1fe146102a457610240565b36610240576000543414610081576040517f08c379a00000000000000000000000000000000000000000000000000000000081526004016100789061033e565b60405180910390fd5b6000600154146100c6576040517f08c379a00000000000000000000000000000000000000000000000000000000081526004016100bd906103aa565b60405180910390fd5b34600160008282546100d89190610403565b925050819055506000600360009054906101000a900473ffffffffffffffffffffffffffffffffffffffff1673ffffffffffffffffffffffffffffffffffffffff163460025460405160240161012e9190610468565b6040516020818303038152906040527f800fb83f000000000000000000000000000000000000000000000000000000007bffffffffffffffffffffffffffffffffffffffffffffffffffffffff19166020820180517bffffffffffffffffffffffffffffffffffffffffffffffffffffffff83818316178352505050506040516101b891906104fd565b60006040518083038185875af1925050503d80600081146101f5576040519150601f19603f3d011682016040523d82523d6000602084013e6101fa565b606091505b505090508061023e576040517f08c379a000000000000000000000000000000000000000000000000000000000815260040161023590610586565b60405180910390fd5b005b34801561024c57600080fd5b005b34801561025a57600080fd5b506102636102cf565b6040516102709190610468565b60405180910390f35b34801561028557600080fd5b5061028e6102d5565b60405161029b9190610468565b60405180910390f35b3480156102b057600080fd5b506102b96102db565b6040516102c69190610468565b60405180910390f35b60015481565b60025481565b60005481565b600082825260208201905092915050565b7f46756c6c205061796d656e74204f6e6c79000000000000000000000000000000600082015250565b60006103286011836102e1565b9150610333826102f2565b602082019050919050565b600060208201905081810360008301526103578161031b565b9050919050565b7f416c726561647920506169640000000000000000000000000000000000000000600082015250565b6000610394600c836102e1565b915061039f8261035e565b602082019050919050565b600060208201905081810360008301526103c381610387565b9050919050565b6000819050919050565b7f4e487b7100000000000000000000000000000000000000000000000000000000600052601160045260246000fd5b600061040e826103ca565b9150610419836103ca565b9250827fffffffffffffffffffffffffffffffffffffffffffffffffffffffffffffffff0382111561044e5761044d6103d4565b5b828201905092915050565b610462816103ca565b82525050565b600060208201905061047d6000830184610459565b92915050565b600081519050919050565b600081905092915050565b60005b838110156104b757808201518184015260208101905061049c565b838111156104c6576000848401525b50505050565b60006104d782610483565b6104e1818561048e565b93506104f1818560208601610499565b80840191505092915050565b600061050982846104cc565b915081905092915050565b7f4572726f7220696e207061796d656e742c20726576657274696e67207472616e60008201527f73616374696f6e00000000000000000000000000000000000000000000000000602082015250565b60006105706027836102e1565b915061057b82610514565b604082019050919050565b6000602082019050818103600083015261059f81610563565b905091905056fea2646970667358221220127d4ffbea5e20392733b59fe948761883e7a6a1885ad01fd341fefd11ddc9b864736f6c634300080e0033",
  "immutableReferences": {},
  "source": "// SPDX-License-Identifier: MIT\n\npragma solidity ^0.8.7;\n\nimport \"./ItemManager.sol\";\n\ncontract Item {\n    uint256 public price;\n    uint256 public paid;\n    uint256 public index;\n    ItemManager parentContract;\n\n    constructor(\n        ItemManager _parentContract,\n        uint256 _index,\n        uint256 _price\n    ) {\n        parentContract = _parentContract;\n        index = _index;\n        price = _price;\n    }\n\n    // Success is true when the called function does't give any error and is executed successfully\n    // If called function gives error, then we can use require() to reverse the whole transaction\n    receive() external payable {\n        require(msg.value == price, \"Full Payment Only\");\n        require(paid == 0, \"Already Paid\");\n        paid += msg.value;\n\n        (bool success, ) = address(parentContract).call{value: msg.value}(\n            abi.encodeWithSignature(\"triggerPayment(uint256)\", index)\n        );\n\n        require(success, \"Error in payment, reverting transaction\");\n    }\n\n    // Fallback function to be able to interact with smart contract through remix\n    fallback() external {}\n}\n",
  "sourcePath": "/Users/prathamesh/Desktop/Web3-Learn/Projects/SupplyChainProjectReact/contracts/Item.sol",
  "compiler": {
    "name": "solc",
    "version": "0.8.14+commit.80d49f37.Emscripten.clang"
  },
  "schemaVersion": "3.4.7",
  "updatedAt": "2022-06-02T10:15:58.078Z",
  "devdoc": {
    "kind": "dev",
    "methods": {},
    "version": 1
  },
  "userdoc": {
    "kind": "user",
    "methods": {},
    "version": 1
  }
}